:100000000C942A000C9447000C9447000C94470071
:100010000C9447000C9447000C9447000C94470044
:100020000C9447000C9447000C9447000C94470034
:100030000C9447000C941E080C9447000C94470045
:100040000C9447000C9447000C9447000C94470014
:100050000C94470011241FBECFE5D8E0DEBFCDBF12
:1000600013E0A0E6B0E0E6E6F4E202C005900D92EF
:10007000A831B107D9F718E0A8E1B3E001C01D929B
:10008000A337B107E1F70E94700E0C9431120C9463
:100090000000DF93CF93CDB7DEB729970FB6F89462
:1000A000DEBF0FBECDBF9C838B837E836D8358875D
:1000B0004F838F8198859A8389831EC089819A8115
:1000C000492F5527EB81FC818081282F30E08981E1
:1000D0009A81822793279070880F991FFC01E05F17
:1000E000FE4F80819181842795279A8389838B8114
:1000F0009C8101969C838B8319868D819E810097BC
:1001000011F081E089878D819E8101979E838D8387
:100110008985882399F689819A8129960FB6F89462
:10012000DEBF0FBECDBFCF91DF910895DF93CF9398
:10013000CDB7DEB729970FB6F894DEBF0FBECDBF9F
:100140009C838B837E836D8358874F838B819C81B7
:100150002D813E814F815885B9010E9449008095CB
:1001600090959A838983198689819A812FE08734B3
:10017000920711F481E08987898529960FB6F89452
:10018000DEBF0FBECDBFCF91DF910895DF93CF9338
:10019000CDB7DEB7CF91DF910895DF93CF9300D035
:1001A00000D0CDB7DEB789836A838981282F30E0FC
:1001B0003C832B838B819C818130910519F12B81AC
:1001C0003C81223031052CF48B819C81009761F0B9
:1001D00042C02B813C812230310511F18B819C8101
:1001E0008330910559F137C08A81882319F4EAE3F5
:1001F000F0E010828A81813071F5EAE3F0E08FEF60
:10020000808329C08A81882319F4E7E3F0E0108213
:100210008A81813001F5E7E3F0E08FEF80831BC036
:100220008A81882319F4E4E3F0E010828A81813026
:1002300091F4E4E3F0E08FEF80830DC08A8188239E
:1002400019F4E1E3F0E010828A81813021F4E1E3E6
:10025000F0E08FEF80830F900F900F900F90CF9171
:10026000DF910895DF93CF9300D000D0CDB7DEB7F4
:1002700089836A838981282F30E03C832B838B819B
:100280009C8181309105D1F02B813C812230310558
:100290002CF48B819C81009761F01EC02B813C81E6
:1002A0002230310581F08B819C818330910581F072
:1002B00013C0EBE3F0E08A8180830EC0E8E3F0E056
:1002C0008A81808309C0E5E3F0E08A81808304C0ED
:1002D000E2E3F0E08A8180830F900F900F900F90FF
:1002E000CF91DF910895DF93CF9300D000D0CDB7A9
:1002F000DEB78A838A81282F30E03C832B838B8171
:100300009C8181309105D1F02B813C8122303105D7
:100310002CF48B819C81009761F01EC02B813C8165
:100320002230310581F08B819C818330910581F0F1
:1003300013C0E9E3F0E0808189830EC0E6E3F0E0DA
:100340008081898309C0E3E3F0E08081898304C070
:10035000E0E3F0E08081898389810F900F900F9016
:100360000F90CF91DF910895DF93CF9300D000D00D
:10037000CDB7DEB789836A838A81282F30E03C833A
:100380002B838B819C81009739F02B813C8121301C
:10039000310509F475C0E1C089818830B8F4AAE359
:1003A000B0E0EAE3F0E08081482F8981882F90E077
:1003B0009C012770307081E090E0022E02C0880F0F
:1003C000991F0A94E2F7809584238C938981883061
:1003D000D0F089818031B8F4A7E3B0E0E7E3F0E042
:1003E0008081482F8981882F90E09C012770307090
:1003F00081E090E0022E02C0880F991F0A94E2F774
:10040000809584238C9389818031D0F089818831D3
:10041000B8F4A4E3B0E0E4E3F0E08081482F898100
:10042000882F90E09C012770307081E090E0022ED0
:1004300002C0880F991F0A94E2F7809584238C9359
:100440008981883108F489C08981803208F085C0AB
:10045000A1E3B0E0E1E3F0E08081482F8981882FBB
:1004600090E09C012770307081E090E0022E02C085
:10047000880F991F0A94E2F7809584238C936DC0AE
:1004800089818830B0F4AAE3B0E0EAE3F0E080814B
:10049000482F8981882F90E09C012770307081E07F
:1004A00090E0022E02C0880F991F0A94E2F7842B75
:1004B0008C9389818830C8F089818031B0F4A7E3BA
:1004C000B0E0E7E3F0E08081482F8981882F90E059
:1004D0009C012770307081E090E0022E02C0880FEE
:1004E000991F0A94E2F7842B8C9389818031C8F09C
:1004F00089818831B0F4A4E3B0E0E4E3F0E08081E6
:10050000482F8981882F90E09C012770307081E00E
:1005100090E0022E02C0880F991F0A94E2F7842B04
:100520008C9389818831C8F089818032B0F4A1E34D
:10053000B0E0E1E3F0E08081482F8981882F90E0EE
:100540009C012770307081E090E0022E02C0880F7D
:10055000991F0A94E2F7842B8C930F900F900F90C1
:100560000F90CF91DF910895DF93CF9300D0CDB757
:10057000DEB789836A838981883030F5ABE3B0E0E8
:10058000EBE3F0E08081482F8981882F90E09C0187
:100590002770307081E090E002C0880F991F2A9583
:1005A000E2F7809548238A81282F30E08981882FBF
:1005B00090E087709070B90102C0660F771F8A952E
:1005C000E2F7CB01842B8C938981883048F18981B3
:1005D000803130F5A8E3B0E0E8E3F0E08081482F17
:1005E0008981882F90E09C012770307081E090E035
:1005F00002C0880F991F2A95E2F7809548238A81C7
:10060000282F30E08981882F90E087709070B901A1
:1006100002C0660F771F8A95E2F7CB01842B8C937B
:100620008981803148F18981883130F5A5E3B0E0D6
:10063000E5E3F0E08081482F8981882F90E09C01DC
:100640002770307081E090E002C0880F991F2A95D2
:10065000E2F7809548238A81282F30E08981882F0E
:1006600090E087709070B90102C0660F771F8A957D
:10067000E2F7CB01842B8C938981883148F1898101
:10068000803230F5A2E3B0E0E2E3F0E08081482F71
:100690008981882F90E09C012770307081E090E084
:1006A00002C0880F991F2A95E2F7809548238A8116
:1006B000282F30E08981882F90E087709070B901F1
:1006C00002C0660F771F8A95E2F7CB01842B8C93CB
:1006D0000F900F90CF91DF910895DF93CF9300D0CB
:1006E000CDB7DEB78A838A81883098F4E9E3F0E0F9
:1006F0008081282F30E08A81882F90E08770907069
:10070000A90102C0559547958A95E2F7CA01817003
:1007100089838A818830B0F08A81803198F4E6E359
:10072000F0E08081282F30E08A81882F90E0877068
:100730009070A90102C0559547958A95E2F7CA01C4
:10074000817089838A818031B0F08A81883198F400
:10075000E3E3F0E08081282F30E08A81882F90E069
:1007600087709070A90102C0559547958A95E2F768
:10077000CA01817089838A818831B0F08A81803290
:1007800098F4E0E3F0E08081282F30E08A81882F20
:1007900090E087709070A90102C0559547958A95A1
:1007A000E2F7CA018170898389810F900F90CF9100
:1007B000DF910895DF93CF9300D0CDB7DEB79A8352
:1007C0008983109219031092180310921B03109240
:1007D0001A0310921F0310921E0310921D03109211
:1007E0001C0389819A8190932103809320031092A6
:1007F00023031092220310922703109226031092D3
:100800002503109224030F900F90CF91DF9108954C
:10081000DF93CF930F92CDB7DEB789832091220368
:1008200030912303809124039091250328173907E1
:10083000A4F4209126033091270340912203509184
:100840002303CA01F901E80FF91F89818083CA01D6
:10085000019690932303809322030F90CF91DF9111
:100860000895DF93CF93CDB7DEB72F970FB6F894E7
:10087000DEBF0FBECDBF9C838B837E836D83588785
:100880004F833A8729871A8219828B819C819093A2
:1008900027038093260310922303109222038D8155
:1008A0009E81909325038093240380EC0E9408048A
:1008B0002AC0EF81F8858081282F30E03F872E877E
:1008C0008E859F85803C910531F02E853F852B3D9F
:1008D000310541F00EC08BED0E9408048CED0E94A2
:1008E00008040CC08BED0E9408048DED0E940804E2
:1008F00005C0EF81F88580810E9408048F8198856A
:10090000019698878F831D8689859A85009711F0B7
:1009100031E03D8789859A8501979A8789878D85FA
:10092000882339F680EC0E9408042091220330913C
:1009300023038091240390912503821793073CF0B1
:1009400020912203309123033C872B8704C08FEF33
:100950009FEF9C878B878B859C852F960FB6F8948D
:10096000DEBF0FBECDBFCF91DF910895DF93CF9350
:1009700000D000D00F92CDB7DEB79A8389837C83F5
:100980006B8380911803909119030097D9F480919B
:100990002003909121030097A9F089819A81909377
:1009A0001F0380931E038B819C8190931D03809372
:1009B0001C0381E090E0909319038093180381E079
:1009C0008D8301C01D828D810F900F900F900F902D
:1009D0000F90CF91DF910895DF93CF930F92CDB712
:1009E000DEB7898320911A0330911B0380911C0389
:1009F00090911D0328173907A4F420911E0330910C
:100A00001F0340911A0350911B03CA01F901E80F1B
:100A1000F91F89818083CA01019690931B038093FB
:100A20001A030F90CF91DF910895DF93CF93CDB745
:100A3000DEB72E970FB6F894DEBF0FBECDBF9D83F5
:100A40008C837F836E831B821A82AEC0EC81FD8112
:100A5000808189838C819D8101969D838C832091E7
:100A60001803309119033E872D878D859E8582302E
:100A70009105D9F02D853E852330310509F46AC0F2
:100A80008D859E858130910509F08EC08981803CDD
:100A900009F08AC010921B0310921A0382E090E0C2
:100AA00090931903809318037FC08981282F30E029
:100AB0003C872B878B859C85803C910531F02B856D
:100AC0003C852B3D3105D9F141C080911A039091AD
:100AD0001B031816190674F58091200390912103C9
:100AE000009721F1E0912003F091210380911E03F2
:100AF00090911F0320911A0330911B03B9010995AE
:100B000090931F0380931E0380911E0390911F03F7
:100B1000009729F410921903109218030BC081E07A
:100B200090E0909319038093180304C01092190366
:100B30001092180310921B0310921A0335C083E021
:100B400090E090931903809318032EC089810E942E
:100B5000EC042AC08981282F30E03A8729878985CB
:100B60009A858C3D910531F029853A852D3D3105D9
:100B700059F014C080EC0E94EC0482E090E0909365
:100B800019038093180310C08BED0E94EC0482E0DF
:100B900090E0909319038093180306C081E090E0E1
:100BA000909319038093180318868E819F81009774
:100BB00011F031E038878E819F8101979F838E836A
:100BC0008885882309F042CF2E960FB6F894DEBFB1
:100BD0000FBECDBFCF91DF910895DF93CF9300D0AB
:100BE0000F92CDB7DEB788E160E00E94B40189E1E1
:100BF00061E00E94B4018091100390911103A091D3
:100C00001203B0911303880F991FAA1FBB1F880FEF
:100C1000991FAA1FBB1F880F991FAA1FBB1F880FF0
:100C2000991FAA1FBB1F9C01AD0180E094E2A4EFB5
:100C3000B0E0BC01CD010E94E00EDA01C9010197CC
:100C40009A838983E0E4F0E089819A81892F99274A
:100C50008083E9E2F0E089818083A9E2B0E0E9E203
:100C6000F0E080818F5F8C93EAE2F0E088E180839E
:100C700080911503882319F180911503813071F457
:100C8000E0E4F0E080818B83E0E4F0E080818B831E
:100C9000E0E4F0E08B818062808311C080911503D5
:100CA000823069F4E0E4F0E080818B83E0E4F0E0FE
:100CB00080818B83E0E4F0E08B818063808380918E
:100CC0001603882389F080911603813069F4E0E4EB
:100CD000F0E080818B83E0E4F0E080818B83E0E4CE
:100CE000F0E08B818868808380911403882379F4F5
:100CF000E0E4F0E080818B83E0E4F0E080818B83AE
:100D0000E0E4F0E08B8189778068808341C0809146
:100D10001403813079F4E0E4F0E080818B83E0E437
:100D2000F0E080818B83E0E4F0E08B81897782685A
:100D300080832EC080911403823071F4E0E4F0E0EF
:100D400080818B83E0E4F0E080818B83E0E4F0E05D
:100D50008B81846880831CC0809114038330C1F030
:100D6000809114038430A1F4E0E4F0E080818B836F
:100D7000E0E4F0E080818B83E0E4F0E08B81866842
:100D80008083AAE2B0E0EAE2F0E0808184608C93A4
:100D9000AAE2B0E0EAE2F0E0808180688C93AFE5FF
:100DA000B0E0EFE5F0E0808180688C9381E090E036
:100DB0000F900F900F90CF91DF910895DF93CF9315
:100DC0000F92CDB7DEB78983EBE2F0E080818295A8
:100DD00086958770882F90E0817090700097A1F3BE
:100DE000ECE2F0E0898180830F90CF91DF9108954C
:100DF000DF93CF93CDB7DEB7EBE2F0E080818823BD
:100E0000DCF7ECE2F0E08081CF91DF9108950F9361
:100E10001F93DF93CF9300D000D0CDB7DEB79C8374
:100E20008B831A8219820FC029813A818B819C8120
:100E3000FC01E20FF31F80810E94DE0689819A8106
:100E400001969A83898309811A818B819C810E94F2
:100E50000B0F0817190740F30F900F900F900F908A
:100E6000CF91DF911F910F910895DF93CF9300D021
:100E700000D00F92CDB7DEB79C838B836D831A822F
:100E8000198219C0EBE2F0E08081882F90E0807237
:100E900090700097B9F3ACE2B0E02B813C8189817E
:100EA0009A81F901E80FF91F80818C9389819A81D9
:100EB00001969A8389838D81282F30E089819A81D8
:100EC00082179307F8F281E090E00F900F900F9057
:100ED0000F900F90CF91DF910895DF93CF9300D0C3
:100EE00000D0CDB7DEB71A8219820CC089819A81F1
:100EF0002B81FC01E555FA4F208389819A81019667
:100F00009A8389830E94F806882F90E09C838B83C4
:100F10008B819C818A30910549F70E94F806882FC1
:100F200090E09C838B838B819C818D309105F1F6C1
:100F300089819A81FC01E555FA4F8AE080830F9000
:100F40000F900F900F90CF91DF910895DF93CF9383
:100F500000D000D00F92CDB7DEB79C838B836D831A
:100F6000AAE2B0E0EAE2F0E080818F778C93809192
:100F70002803882309F11A82198213C02B813C812E
:100F800089819A81D901A80FB91F89819A81FC01B1
:100F9000E75DFC4F80818C9389819A8101969A83C9
:100FA00089838D81282F30E089819A818217930768
:100FB00028F31092280302C010922803AAE2B0E09E
:100FC000EAE2F0E0808180688C930F900F900F90A0
:100FD0000F900F90CF91DF9108950F931F93DF93A0
:100FE000CF9300D000D00F92CDB7DEB79C838B8318
:100FF0006D831A82198210C029813A818B819C816C
:101000008C01020F131F0E94F806F801808389816A
:101010009A8101969A8389838D81282F30E0898176
:101020009A818217930744F30F900F900F900F90BF
:101030000F90CF91DF911F910F9108951F920F9202
:101040000FB60F9211242F938F939F93EF93FF93DB
:10105000DF93CF93CDB7DEB780912803882F90E040
:10106000ECE2F0E02081FC01E75DFC4F2083809101
:1010700028038F5F8093280380912803853110F027
:1010800010922803CF91DF91FF91EF919F918F9163
:101090002F910F900FBE0F901F901895DF93CF9355
:1010A00000D000D0CDB7DEB79A8389837C836B8371
:1010B00010923D0310923E0310923F0310924003A2
:1010C00089819A8190934403809343038B819C810F
:1010D000909342038093410386E499E00E94DA03EF
:1010E0008B819C81029660E371E00E94B60488E1E6
:1010F00060E00E94B40189E161E00E94B4010E94B5
:10110000ED050F900F900F900F90CF91DF91089504
:10111000DF93CF93CDB7DEB72A970FB6F894DEBF33
:101120000FBECDBF98878F838F819885009729F454
:101130008FEF9FEF9A87898773C08F819885AC0165
:101140004E5F5F4FEF81F885808191819C012E5F1A
:101150003F4FCA01B9014FEF5FEF0E9449009E83E4
:101160008D838D819E81809590959E838D83EF8167
:10117000F885208131814D818F819885820F931F61
:10118000FC0134964083EF81F885808191819C0138
:101190002F5F3F4F8D819E81892F9927482F8F8107
:1011A0009885820F931FFC01349640838F81988528
:1011B000AC014E5F5F4FEF81F8858081918104968D
:1011C0009C0185E493E066E672E00E9431049C8312
:1011D0008B838B819C8118161906F4F41A8219826C
:1011E00008C080EC0E94DE0689819A8101969A836C
:1011F000898389819A81883291059CF32B8185E4CA
:1012000093E0622F0E943507181619062CF481E02E
:1012100090E09A87898704C08FEF9FEF9A8789872C
:1012200089859A852A960FB6F894DEBF0FBECDBF8A
:10123000CF91DF910895DF93CF93CDB7DEB7669757
:101240000FB6F894DEBF0FBECDBF80912803882F64
:1012500090E09A8389832981CE010396622F0E94B0
:10126000A60789819A81181619063CF4CE010396C7
:1012700029813A81B9010E94150566960FB6F89446
:10128000DEBF0FBECDBFCF91DF910895DF93CF9327
:1012900000D000D000D0CDB7DEB79A8389837C839D
:1012A0006B838B819C8184309105DCF12B813C81A7
:1012B00089819A81B9014FEF5FEF0E9496008823E0
:1012C000E9F08091430390914403009751F1E0913C
:1012D0004103F09142038B819C8104979183808329
:1012E000E0914303F09144038091410390914203C4
:1012F0000995909342038093410313C080913D036D
:1013000090913E03A0913F03B09140030196A11D2F
:10131000B11D80933D0390933E03A0933F03B09390
:1013200040038091410390914203009751F08091D6
:101330004103909142039C012E5F3F4F3E832D83DA
:1013400002C01E821D828D819E8126960FB6F89462
:10135000DEBF0FBECDBFCF91DF910895DF93CF9356
:10136000CDB7DEB78EE79BE021E437E0B9010E94FC
:101370004E08CF91DF910895DF93CF93CDB7DEB7BD
:1013800081E08093110681E080931206109210068E
:1013900010920F068FE096E00E948808CF91DF91AF
:1013A0000895DF93CF93CDB7DEB727970FB6F894A4
:1013B000DEBF0FBECDBF89837B836A835D834C8391
:1013C0008C819D8121E08C3292072CF08FEF9FEF72
:1013D0009F838E831FC080E1809311068DE08093F0
:1013E00012068C819D8101969093100680930F06C2
:1013F0008981809313064C815D8184E196E02A8186
:101400003B81B9010E94020F8FE096E00E9488089C
:101410009F838E838E819F8127960FB6F894DEBFBF
:101420000FBECDBFCF91DF910895DF93CF93CDB79E
:10143000DEB727970FB6F894DEBF0FBECDBF898306
:101440007B836A835D834C838C819D8121E08C3218
:1014500092072CF08FEF9FEF9F838E831FC080E158
:101460008093110681E1809312068C819D81019603
:101470009093100680930F068981809313064C8108
:101480005D8184E196E02A813B81B9010E94020FCF
:101490008FE096E00E9488089F838E838E819F81D3
:1014A00027960FB6F894DEBF0FBECDBFCF91DF9168
:1014B0000895DF93CF9300D000D000D0CDB7DEB732
:1014C0009A8389837C836B835E834D8380E18093E1
:1014D000110681E08093120684E290E0909310065A
:1014E00080930F06E981FA818081809313068981B8
:1014F0009A81FC01319680818093140689819A81BA
:10150000FC01329680818093150689819A81FC01C5
:1015100033968081809316068B819C81FC013F96D7
:101520008081809317068B819C81FC013E9680818F
:10153000809318068B819C81FC013D96808180936D
:1015400019068B819C81FC013C96808180931A0650
:101550008B819C81FC013B96808180931B068B8153
:101560009C81FC013A96808180931C068B819C8132
:10157000FC013996808180931D068B819C81FC0142
:101580003896808180931E068B819C81FC01379662
:10159000808180931F068B819C81FC01369680811F
:1015A000809320068B819C81FC01359680818093FD
:1015B00021068B819C81FC013496808180932206D8
:1015C0008B819C81FC0133968081809323068B81E3
:1015D0009C81FC0132968081809324068B819C81C2
:1015E000FC013196808180932506EB81FC8180810E
:1015F000809326068D819E81FC013F968081809399
:1016000027068D819E81FC013E968081809328066D
:101610008D819E81FC013D968081809329068D817C
:101620009E81FC013C96808180932A068D819E815B
:10163000FC013B96808180932B068D819E81FC016D
:101640003A96808180932C068D819E81FC0139968B
:10165000808180932D068D819E81FC01389680814A
:1016600080932E068D819E81FC0137968081809328
:101670002F068D819E81FC013696808180933006F5
:101680008D819E81FC0135968081809331068D810C
:101690009E81FC0134968081809332068D819E81EB
:1016A000FC0133968081809333068D819E81FC01FD
:1016B00032968081809334068D819E81FC01319623
:1016C000808180933506ED81FE818081809336068E
:1016D0008FE096E00E94880826960FB6F894DEBF49
:1016E0000FBECDBFCF91DF910895DF93CF93CDB7DC
:1016F000DEB70E941B09CF91DF910895DF93CF934E
:1017000000D000D0CDB7DEB79A838983E981FA8112
:101710008281282F30E03C832B838B819C81813018
:10172000910531F02B813C812031310531F009C028
:1017300089819A810E94AA0B04C089819A810E94A2
:10174000FC0B81E497E00F900F900F900F90CF91DA
:10175000DF910895DF93CF9300D000D0CDB7DEB7EF
:101760009C838B83EB81FC818381882F90E0823086
:101770009105F1F481E090E00E94450D80E690E053
:101780000E94AB0D81E090E060E070E00E94D70D18
:101790008EE690E00E94AB0DEB81FC818481882F66
:1017A00090E00E94140FCE0101960E94AB0D1DC067
:1017B00081E090E00E94450D8AE790E00E94AB0D29
:1017C00081E090E060E070E00E94D70D8BE890E04F
:1017D0000E94AB0DEB81FC818381882F90E00E94F9
:1017E000140FCE0101960E94AB0D0F900F900F9039
:1017F0000F90CF91DF910895DF93CF9300D000D069
:1018000000D0CDB7DEB79C838B83EB81FC818381D5
:10181000282F30E03E832D838D819E818E3091056F
:1018200031F02D813E8122313105F9F03CC081E05B
:1018300090E00E94450D86E990E00E94AB0D81E0AA
:1018400090E060E070E00E94D70D8EE690E00E948C
:10185000AB0DEB81FC818481882F90E00E94140FF6
:10186000CE0101960E94AB0D3BC081E090E00E944A
:10187000450D86EA90E00E94AB0D81E090E060E0CB
:1018800070E00E94D70D8EE690E00E94AB0DEB81D8
:10189000FC818481882F90E00E94140FCE01019674
:1018A0000E94AB0D1DC081E090E00E94450D86EBCB
:1018B00090E00E94AB0D81E090E060E070E00E945B
:1018C000D70D8BE890E00E94AB0DEB81FC8183810A
:1018D000882F90E00E94140FCE0101960E94AB0D5C
:1018E00026960FB6F894DEBF0FBECDBFCF91DF9125
:1018F0000895DF93CF93CDB7DEB728970FB6F8944E
:10190000DEBF0FBECDBF6D837E838F839887E2E5F8
:10191000F0E01082ECE5F0E08CE38083A3E5B0E03A
:10192000E3E5F0E0808182608C93A3E5B0E0E3E53D
:10193000F0E0808188608C9319821A821B821C825D
:10194000E8E5F0E080818695882F90E081709070C6
:10195000882391F0A8E5B0E0E8E5F0E080818260BE
:101960008C9389819A81AB81BC810196A11DB11DA7
:1019700089839A83AB83BC838D819E81AF81B88537
:1019800029E130E040E050E0BC01CD010E94C10EF1
:101990009B01AC0189819A81AB81BC8128173907F1
:1019A0004A075B0769F6E2E5F0E0108228960FB679
:1019B000F894DEBF0FBECDBFCF91DF910895DF93C6
:1019C000CF930F92CDB7DEB78983A8E3B0E0E8E309
:1019D000F0E0808182608C93A8E3B0E0E8E3F0E07F
:1019E00080818B7F8C93ABE3B0E0898182958F708F
:1019F000882F90E082959295907F9827807F9827F6
:101A0000982FEBE3F0E080818F70892B8C93A8E313
:101A1000B0E0E8E3F0E0808188608C9365E070E0FE
:101A200080E090E00E94790CA8E3B0E0E8E3F0E009
:101A30008081877F8C93ABE3B0E08981882F90E031
:101A400082959295907F9827807F9827982FEBE337
:101A5000F0E080818F70892B8C93A8E3B0E0E8E3FD
:101A6000F0E0808188608C9365E070E080E090E039
:101A70000E94790CA8E3B0E0E8E3F0E08081877F82
:101A80008C930F90CF91DF910895DF93CF930F92B6
:101A9000CDB7DEB78983A8E3B0E0E8E3F0E080816A
:101AA0008D7F8C93A8E3B0E0E8E3F0E080818B7F4A
:101AB0008C93ABE3B0E0898182958F70882F90E0A2
:101AC00082959295907F9827807F9827982FEBE3B7
:101AD000F0E080818F70892B8C93A8E3B0E0E8E37D
:101AE000F0E0808188608C9365E070E080E090E0B9
:101AF0000E94790CA8E3B0E0E8E3F0E08081877F02
:101B00008C93ABE3B0E08981882F90E08295929529
:101B1000907F9827807F9827982FEBE3F0E08081D3
:101B20008F70892B8C93A8E3B0E0E8E3F0E080812C
:101B300088608C9365E070E080E090E00E94790C12
:101B4000A8E3B0E0E8E3F0E08081877F8C930F901A
:101B5000CF91DF9108950F931F93DF93CF9300D020
:101B60000F92CDB7DEB79B838A8319820EC089811D
:101B7000282F30E08A819B81FC01E20FF31F8081D6
:101B80000E94DF0C89818F5F89838981082F10E093
:101B90008A819B810E940B0F0817190740F30F9051
:101BA0000F900F90CF91DF911F910F910895DF93C8
:101BB000CF9300D000D000D0CDB7DEB78D836E8339
:101BC00080E8898380EC8A8384E98B8384ED8C832D
:101BD0008D81282F30E0CE010196FC01E20FF31F2A
:101BE00090818E81890F0E94450D61E070E080E058
:101BF00090E00E94790C26960FB6F894DEBF0FBED7
:101C0000CDBFCF91DF910895DF93CF9300D000D067
:101C100000D0CDB7DEB78D836E8380E8898380ECFA
:101C20008A8384E98B8384ED8C838E81282F30E036
:101C3000CE010196FC01E20FF31F90818D81890F87
:101C40000E94450D61E070E080E090E00E94790C18
:101C500026960FB6F894DEBF0FBECDBFCF91DF91B1
:101C60000895DF93CF93CDB7DEB7AAE3B0E0EAE300
:101C7000F0E08081806F8C93A7E3B0E0E7E3F0E0D1
:101C800080818F608C9368E270E080E090E00E9439
:101C9000790C82E00E94450D65E070E080E090E004
:101CA0000E94790C88E20E94450D65E070E080E0BA
:101CB00090E00E94790C8CE00E94450D65E070E098
:101CC00080E090E00E94790C81E00E94450D6AE07E
:101CD00070E080E090E00E94790CCF91DF91089550
:101CE000DF93CF93CDB7DEB7E4970FB6F894DEBF9E
:101CF0000FBECDBF0E94AE098CEE90E020E031E037
:101D000040EF50E0B9010E94590A009709F0FFCF57
:101D100081E08A8319828981282F30E000D000D0A9
:101D200000D0EDB7FEB73196CE0103969183808344
:101D300083EC90E093838283358324830E94350F64
:101D40008DB79EB706960FB6F8949EBF0FBE8DBF97
:101D5000CE0103960E940B0FAC019E012D5F3F4FF9
:101D60008A81B9010E94D109009709F0FFCF8981CA
:101D70008F5F898368EE73E080E090E00E94790CC9
:101D8000CACF629FD001739FF001829FE00DF11DC9
:101D9000649FE00DF11D929FF00D839FF00D749FE5
:101DA000F00D659FF00D9927729FB00DE11DF91F91
:101DB000639FB00DE11DF91FBD01CF0111240895EE
:101DC000A1E21A2EAA1BBB1BFD010DC0AA1FBB1F3F
:101DD000EE1FFF1FA217B307E407F50720F0A21BB1
:101DE000B30BE40BF50B661F771F881F991F1A941E
:101DF00069F760957095809590959B01AC01BD0148
:101E0000CF010895FB01DC0102C001900D92415009
:101E10005040D8F70895FC0101900020E9F7809523
:101E200090958E0F9F1F0895FB019F01E89442300B
:101E3000C4F04532B4F44A3029F497FB1EF490956F
:101E400081959F4F642F77270E94E611805D8A332A
:101E50000CF0895D8193CB010097A1F716F45DE248
:101E600051931082C9010C944C11AEE0B0E0EBE349
:101E7000FFE00C9408120D891E8986E08C831A837A
:101E800009838FEF9FE79E838D839E01275E3F4FDF
:101E9000CE0101966F89788DA9010E94590F2F817B
:101EA0003885020F131FF80110822E96E4E00C947F
:101EB0002412ABE0B0E0EFE5FFE00C94FA113C0136
:101EC0002B015A01FC0117821682838181FD03C018
:101ED0006FEF7FEFC6C19AE0892E1E010894211C86
:101EE000311CF3012381F20123FD859123FF8191B0
:101EF0002F01882309F4B2C1853239F423FD85917D
:101F000023FF81912F01853229F490E0B3010E94D3
:101F10005C11E7CF982FFF24EE249924FFE1FF15F1
:101F2000D0F09B3269F09C3228F4903259F0933211
:101F300091F40EC09D3249F0903369F441E024C021
:101F400052E0F52A84E0F82A28C098E0F92A25C052
:101F5000E0E1FE2A22C0F7FC29C0892F80538A3095
:101F600070F4F6FE05C0989C902C1124980E15C0B4
:101F7000E89CE02C1124E80EF0E2FF2A0EC09E320D
:101F800029F4F6FC6BC140E4F42A07C09C3619F42E
:101F900050E8F52A02C0983649F4F20123FD9591E4
:101FA00023FF91912F01992309F0B8CF892F8554F0
:101FB000833018F08052833038F444E050E0A40EAF
:101FC000B51E5FE359830FC0933631F0933779F034
:101FD000933509F056C020C0F5018081898342E025
:101FE00050E0A40EB51E610101E010E012C0F50141
:101FF000C080D180F6FC03C06FEF7FEF02C0692D77
:1020000070E042E050E0A40EB51EC6010E944111EE
:102010008C015FE7F52214C0F501C080D180F6FC89
:1020200003C06FEF7FEF02C0692D70E042E050E027
:10203000A40EB51EC6010E9436118C0150E8F52A87
:10204000F3FE07C01AC080E290E0B3010E945C1169
:10205000EA948E2D90E008171907A8F30EC0F60138
:10206000F7FC8591F7FE81916F0190E0B3010E942A
:102070005C11E110EA94015010400115110579F747
:10208000EAC0943611F0993669F5F7FE08C0F501FB
:10209000208131814281538184E090E00AC0F501C2
:1020A000808191819C01442737FD4095542F82E027
:1020B00090E0A80EB91E9FE6F92257FF09C050957F
:1020C0004095309521953F4F4F4F5F4FE0E8FE2AF6
:1020D000CA01B901A1012AE030E00E948811D82E7E
:1020E000D21840C0953729F41F2D1F7E2AE030E01A
:1020F0001DC01F2D197F9F3661F0903720F4983551
:1021000009F0ACC00FC0903739F0983709F0A6C07D
:1021100004C028E030E00AC0106114FD146020E122
:1021200030E004C014FD166020E132E017FF08C063
:10213000F501608171818281938144E050E008C0A3
:10214000F50180819181BC0180E090E042E050E0A7
:10215000A40EB51EA1010E948811D82ED2188FE7B7
:10216000F82EF122F6FE0BC05EEFF522D91438F4FA
:10217000F4FE07C0F2FC05C08FEEF82202C01D2D50
:1021800001C0192DF4FE0DC0FE01ED0DF11D808181
:10219000803319F499EEF92208C01F5FF2FE05C0E2
:1021A00003C08F2D867809F01F5F0F2DF3FC14C03C
:1021B000F0FE0FC01E1510F09D2C0BC09D2C9E0C28
:1021C000911A1E2D06C080E290E0B3010E945C11BE
:1021D0001F5F1E15C0F304C01E1510F4E11A01C0E4
:1021E000EE2404FF0FC080E390E0B3010E945C1175
:1021F00002FF1DC001FD03C088E790E00EC088E526
:1022000090E00BC0802F867891F001FF02C08BE236
:1022100001C080E2F7FC8DE290E0B3010E945C1106
:1022200006C080E390E0B3010E945C119A94D91437
:10223000C0F3DA94F101ED0DF11D808190E0B3015E
:102240000E945C11DD20A9F706C080E290E0B30196
:102250000E945C11EA94EE20C1F743CEF30166813F
:102260007781CB012B96E2E10C941612FC010590CC
:10227000615070400110D8F7809590958E0F9F1F88
:102280000895FC016150704001900110D8F78095CD
:1022900090958E0F9F1F0895DC01FC01672F7191AF
:1022A0007723E1F7329704C07C916D93708362913C
:1022B000AE17BF07C8F308950F931F93CF93DF9313
:1022C0008C01EB018B8181FF1BC082FF0DC02E8131
:1022D0003F818C819D812817390764F4E881F98159
:1022E0000193F983E88306C0E885F985802F099575
:1022F000892B31F48E819F8101969F838E8302C04A
:102300000FEF1FEFC801DF91CF911F910F9108953B
:10231000FA01AA27283051F1203181F1E8946F9316
:102320006E7F6E5F7F4F8F4F9F4FAF4FB1E03ED0BC
:10233000B4E03CD0670F781F891F9A1FA11D680F5A
:10234000791F8A1F911DA11D6A0F711D811D911D8D
:10235000A11D20D009F468943F912AE0269F112402
:102360003019305D3193DEF6CF010895462F477066
:10237000405D4193B3E00FD0C9F7F6CF462F4F70C1
:10238000405D4A3318F0495D31FD4052419302D01F
:10239000A9F7EACFB4E0A6959795879577956795C5
:1023A000BA95C9F700976105710508959B01AC01C5
:1023B0000A2E06945795479537952795BA95C9F7EC
:1023C000620F731F841F951FA01D0895AA1BBB1BBE
:1023D00051E107C0AA1FBB1FA617B70710F0A61B25
:1023E000B70B881F991F5A95A9F780959095BC0146
:1023F000CD0108952F923F924F925F926F927F92FC
:102400008F929F92AF92BF92CF92DF92EF92FF9204
:102410000F931F93CF93DF93CDB7DEB7CA1BDB0BB0
:102420000FB6F894DEBF0FBECDBF09942A88398855
:1024300048885F846E847D848C849B84AA84B9845C
:10244000C884DF80EE80FD800C811B81AA81B98168
:10245000CE0FD11D0FB6F894DEBF0FBECDBFED017C
:062460000895F894FFCF7F
:1024660050696E6720526573706F6E7365005374A2
:1024760061747573203A203078004465764D676D37
:1024860074206D73672072656376004D73674944E7
:10249600203A2030780053656E6420552D446174CF
:1024A60061205265730053656E6420432D44617448
:1024B600612052657300534150206D736720726529
:1024C600637600416264656C68616D656564204E83
:1024D6006179656C20416264656C68616D656564EF
:1024E6002025640035FFA95534A41DCFE2166E01E0
:1024F600EEF1BB143E25604FF8A8860933282CA2BE
:10250600BF36D1FAB89C841D74AE03C3A058DCDE76
:102516000000891112239B322446AD573665BF74DD
:10252600488CC19D5AAFD3BE6CCAE5DB7EE9F7F88D
:102536008110080193331A22A5562C47B7753E64BD
:10254600C99C408DDBBF52AEEDDA64CBFFF976E86D
:1025560002218B30100299132667AF763444BD559D
:102566004AADC3BC588ED19F6EEBE7FA7CC8F5D94D
:1025760083310A2091121803A7772E66B5543C457D
:10258600CBBD42ACD99E508FEFFB66EAFDD874C92D
:1025960004428D5316619F702004A9153227BB365D
:1025A6004CCEC5DF5EEDD7FC6888E1997AABF3BA0D
:1025B60085520C4397711E60A1142805B3373A263D
:1025C600CDDE44CFDFFD56ECE9986089FBBB72AAED
:1025D60006638F7214409D512225AB343006B9171D
:1025E6004EEFC7FE5CCCD5DD6AA9E3B8788AF19BCD
:1025F60087730E6295501C41A3352A24B1163807FD
:10260600CFFF46EEDDDC54CDEBB962A8F99A708BAC
:10261600088481951AA793B62CC2A5D33EE1B7F0DC
:102626004008C919522BDB3A644EED5F766DFF7C8C
:10263600899400859BB712A6ADD224C3BFF136E0BC
:10264600C1184809D33B5A2AE55E6C4FF77D7E6C6C
:102656000AA583B4188691972EE3A7F23CC0B5D19C
:102666004229CB38500AD91B666FEF7E744CFD5D4C
:102676008BB502A499961087AFF326E2BDD034C17C
:10268600C3394A28D11A580BE77F6E6EF55C7C4D2C
:102696000CC685D71EE597F42880A1913AA3B3B25C
:1026A600444ACD5B5669DF78600CE91D722FFB3E0C
:1026B6008DD604C79FF516E4A9902081BBB332A23C
:1026C600C55A4C4BD7795E68E11C680DF33F7A2EEC
:1026D6000EE787F61CC495D52AA1A3B03882B1931C
:1026E600466BCF7A5448DD59622DEB3C700EF91FCC
:1026F6008FF706E69DD414C5ABB122A0B9923083FC
:10270600C77B4E6AD5585C49E33D6A2CF11E780FAB
:0827160000C2010003000000F5
:00000001FF
